:1000000009C00EC00DC00CC00BC00AC009C008C09A
:1000100007C006C011241FBECFE9CDBF94D0B6C023
:10002000EFCF9FB7F894B89A8AEB8A95F1F7B89812
:1000300089E18A95F1F786B39FBF91EA9A95F1F726
:100040008095817008959FB7F894B89A00C0000019
:100050008111B89889E18A95F1F7B8989FBF089502
:10006000EF92FF920F931F93CF93DF93C0E0D0E006
:10007000EE24E394F12C082F10E097010C2E02C01F
:10008000220F331F0A94E2F7A901402351232417BA
:10009000350719F481E0D7DF02C080E0D4DF219674
:1000A000C830D10551F7DF91CF911F910F91FF908B
:1000B000EF9008959FB7F894B89A00C00000B898E0
:1000C00025E02A95F1F786B321E12A95F1F70000A2
:1000D0009FBF817008951F93CF93DF93C0E0D0E05E
:1000E00010E0E8DF282F30E00C2E02C0220F331F73
:1000F0000A94E2F7122B2196C830D10591F7812F8F
:10010000DF91CF911F910895CF938BDF8130B9F4A8
:100110008CECA6DF84E4A4DF87ED90E00197F1F793
:1001200000C07FDF8CEC9CDF8EEB9ADFD4DFC82F22
:10013000D2DF2C2F30E0A901582BCA0102C080E089
:1001400090E0CF91089580E588BBDEDF929582959F
:100150008F7089279F708927823360F4BB9AC39878
:100160002FED84E097E0215080409040E1F700C0FF
:100170000000EBCFBB9AC39A2FED84E097E02150AB
:1001800080409040E1F700C00000DFCFF894FFCF3F
:00000001FF
